:020000040800F2
:100000006007002089010008291D0008C11A0008A6
:10001000251D000891020008992100080000000039
:10002000000000000000000000000000D91D0008D2
:100030009502000800000000991D0008311E00080C
:10004000A3010008A3010008A3010008A301000800
:10005000A3010008A3010008A3010008A3010008F0
:10006000A3010008A3010008A3010008A3010008E0
:10007000A3010008A3010008A3010008A3010008D0
:10008000A3010008A3010008A3010008A3010008C0
:10009000A3010008A3010008A3010008A3010008B0
:1000A000A3010008A3010008A3010008A3010008A0
:1000B000A3010008A51E0008A3010008A301000871
:1000C000A3010008A3010008A3010008A301000880
:1000D000A3010008A3010008A3010008A301000870
:1000E000A3010008A3010008A301000800F002F822
:1000F00000F03AF80AA090E8000C82448344AAF188
:100100000107DA4501D100F02FF8AFF2090EBAE885
:100110000F0013F0010F18BFFB1A43F0010318473B
:100120003C2300005C230000103A24BF78C878C14B
:10013000FAD8520724BF30C830C144BF04680C60ED
:10014000704700000023002400250026103A28BF35
:1001500078C1FBD8520728BF30C148BF0B60704739
:100160001FB51FBD10B510BD00F058F81146FFF7C0
:10017000F7FF02F073F800F076F803B4FFF7F2FF30
:1001800003BC00F07DF8000009488047094800479B
:10019000FEE7FEE7FEE7FEE7FEE7FEE7FEE7FEE737
:1001A000FEE7FEE704480549054A064B7047000094
:1001B000A11E0008ED00000860010020600700207B
:1001C00060030020600300204FF0000200B51346DA
:1001D00094469646203922BFA0E80C50A0E80C5067
:1001E000B1F12001BFF4F7AF090728BFA0E80C5018
:1001F00048BF0CC05DF804EB890028BF40F8042B11
:1002000008BF704748BF20F8022B11F0804F18BF7D
:1002100000F8012B7047704770477047754600F033
:100220002BF8AE4605006946534620F00700854688
:1002300018B020B5FFF7B6FFBDE820404FF000062C
:100240004FF000074FF000084FF0000BAC46ACE851
:10025000C009ACE8C009ACE8C009ACE8C00921F0AD
:1002600007018D46704710B50446AFF30080204665
:10027000BDE81040FFF781BF004870471000002024
:1002800001491820ABBEFEE72600020070470000BF
:10029000FFE7FEE77047000081B0EFF3108072B611
:1002A0000090FFE7FEE7000090B00F900E91002055
:1002B0000D900990FFE70E9800680D99C84000283E
:1002C00000F07F81FFE70D99012088400C900E9887
:1002D00000680C9908400B900B980C99884240F0EC
:1002E0006C81FFE70E9840680590002851D0FFE729
:1002F000059801283AD0FFE7059802283FD0FFE78C
:10030000059803285FD0FFE70598112832D0FFE752
:100310000598122838D0FFE705980021C1F2110195
:10032000884236D0FFE705980021C1F212018842C9
:100330002FD0FFE705980021C1F22101884228D083
:10034000FFE705980021C1F22201884221D0FFE792
:1003500005980021C1F2310188421AD0FFE70598C3
:100360000021C1F23201884213D02FE00E98C068FC
:1003700009902CE00E98C0680430099027E00E9890
:10038000C0680830099022E00E98C0680C300990CF
:100390001DE00E98806818B9FFE70420099011E06D
:1003A0000E988068012806D1FFE7082009900C9874
:1003B0000F99086105E0082009900C980F99486191
:1003C000FFE7FFE703E00020099000E0FFE70B985C
:1003D000FF2803D8FFE70F98049003E00F9804303C
:1003E0000490FFE7049808900B98FF2804D8FFE7D3
:1003F0000D988000039006E00D996FF01F0000EB50
:1004000081000390FFE70398079008980068079A17
:100410000F21914088430999914008430899086049
:100420000E98C079C006002840F1C680FFE7FFE7BC
:1004300041F21800C4F20200016841F001010160BC
:10044000006800F0010006900698FFE70D9820F084
:1004500003000821C4F2010140580A900D9800F0F1
:10046000030081000F2000FA01F10A9888430A90E6
:100470000F9840F60001C4F20101884203D1FFE762
:100480000020029026E00F9840F60041C4F20101DE
:10049000884203D1FFE70120019018E00F9841F254
:1004A0000001C4F20101884203D1FFE7022000905D
:1004B0000AE00F9941F20042C4F201020420914285
:1004C00008BF03200090FFE700980190FFE7019824
:1004D0000290FFE702980D9901F00301890000FAEC
:1004E00001F10A9808430A900A980D9921F0030136
:1004F0000822C4F2010288500E988079C0060028B4
:1005000009D5FFE70B9A40F20841C4F201010868DF
:100510001043086008E00B9A40F20841C4F2010160
:10052000086890430860FFE70E98807980060028ED
:1005300009D5FFE70B9A40F20C41C4F201010868AB
:100540001043086008E00B9A40F20C41C4F201012C
:10055000086890430860FFE70E98807980070028BC
:1005600009D5FFE70B9A40F20441C4F20101086883
:100570001043086008E00B9A40F20441C4F2010104
:10058000086890430860FFE70E988079C00748B17B
:10059000FFE70B9A40F20041C4F2010108681043E2
:1005A000086008E00B9A40F20041C4F201010868BB
:1005B00090430860FFE7FFE7FFE70D9801300D90DB
:1005C00079E610B07047000082B00190ADF80210DB
:1005D0008DF801209DF8010028B1FFE7BDF8020069
:1005E0000199086105E0BDF8020000040199086165
:1005F000FFE702B07047000040F25410C2F2000062
:100600000068704740F20400C2F20000027840F235
:100610005411C2F2000108681044086070470000DD
:1006200080B542F20001C4F20201086840F01000F7
:100630000860032000F096F80F2000F005F800F0A5
:100640003BF8002080BD000080B582B0009040F2F1
:100650000000C2F20000006840F20401C2F2000192
:100660000A784FF47A71B1FBF2F1B0FBF1F000F0CF
:1006700049FD20B1FFE701208DF8070018E0009840
:100680000F280DD8FFE700994FF0FF30002200F04F
:100690004FF8009840F20801C2F20001086003E040
:1006A00001208DF8070003E000208DF80700FFE728
:1006B0009DF8070002B080BD83B0FFE741F218004B
:1006C000C4F20200016841F001010160006800F01D
:1006D000010002900298FFE7FFE741F21C00C4F21C
:1006E0000200016841F080510160006800F0805014
:1006F00001900198FFE7FFE70421C4F201010868B7
:100700000090009820F0E0600090009840F00070A9
:10071000009000980860FFE703B0704780B582B092
:100720008DF807009DF9070001F038FD02B080BD8B
:1007300080B586B08DF817000491039200200290D6
:1007400001F044FD02909DF9170001900298049970
:10075000039A01F0EBFA0146019801F03FFD06B063
:1007600080BD000080B582B00190019801F058FD75
:1007700002B080BD80B584B002900191029820B98A
:10078000FFE701208DF80F001BE1019842F2000104
:10079000C4F20201096801F00701884216D9FFE797
:1007A00042F20000C4F20200016821F00701019A40
:1007B00011430160006800F007000199884204D0ED
:1007C000FFE701208DF80F00FBE0FFE702980078BB
:1007D000800700282AD5FFE7029800784007002804
:1007E00009D5FFE741F20401C4F20201086840F4B0
:1007F000E0600860FFE7029800780007002809D54C
:10080000FFE741F20401C4F20201086840F46050BD
:100810000860FFE741F20401C4F20201086820F019
:10082000F000029A926810430860FFE7029800788F
:10083000C007002860D0FFE70298406801280ED169
:10084000FFE741F20000C4F20200006880030028C4
:1008500004D4FFE701208DF80F00B2E021E00298F8
:10086000406802280ED1FFE741F20000C4F2020006
:1008700000688001002804D4FFE701208DF80F00F4
:100880009FE00DE041F20000C4F202000068800722
:10089000002804D4FFE701208DF80F0091E0FFE766
:1008A000FFE741F20401C4F20201086820F00300EE
:1008B000029A526810430860FFF79EFE0090FFE71F
:1008C00041F20400C4F20200006800F00C0002993A
:1008D0004968B0EB810F0ED0FFE7FFF78DFE00995E
:1008E000401A41F28931884204D3FFE703208DF892
:1008F0000F0066E0E4E7FFE7019842F20001C4F26E
:100900000201096801F00701884216D2FFE742F2AE
:100910000000C4F20200016821F00701019A1143AE
:100920000160006800F007000199884204D0FFE7E9
:1009300001208DF80F0044E0FFE70298007840079F
:1009400000280CD5FFE741F20401C4F20201086857
:1009500020F4E060029AD26810430860FFE7029832
:100960000078000700280DD5FFE741F20401C4F22A
:100970000201086820F46050029A126940EAC2003D
:100980000860FFE700F022F841F20401C4F202011E
:100990000968C9B20A0942F23841C0F60001895C0F
:1009A000C84040F20001C2F20001086040F20800B5
:1009B000C2F200000068FFF747FE00208DF80F002C
:1009C000FFE79DF80F0004B080BD000086B0002056
:1009D0000590049003900290019041F20400C4F24B
:1009E000020000680590059800F00C000146009197
:1009F00000283FD0FFE70098042804D0FFE70098C4
:100A0000082806D037E041F20020C0F27A000190B9
:100A100037E00598C0F3834142F24840C0F6000039
:100A2000405C02909DF81600C007C0B1FFE741F29C
:100A30000400C4F202000068C0F3404142F2584092
:100A4000C0F60000405C0490029841F20021C0F220
:100A50007A0148430499B0FBF1F0039007E0029853
:100A600040F60011C0F23D0148430390FFE70398B0
:100A7000019006E0FFE741F20020C0F27A00019009
:100A8000FFE7019806B0704780B586B004900498DF
:100A900020B9FFE701208DF817002EE304980078B5
:100AA000C007002800F0AE80FFE741F20400C4F266
:100AB0000200006800F00C00042813D0FFE741F2A8
:100AC0000400C4F20200006800F00C0008281BD1EA
:100AD000FFE741F20400C4F202000068C0030028EE
:100AE00012D5FFE741F20000C4F202000068800363
:100AF000002808D5FFE70498406820B9FFE70120E7
:100B00008DF81700F9E27CE0FFE704984068B0F543
:100B1000803F09D1FFE741F20001C4F202010868F9
:100B200040F48030086032E00498406868B9FFE71C
:100B300041F20001C4F20201086820F4803008602C
:100B4000086820F48020086020E004984068B0F530
:100B5000A02F0DD1FFE741F20001C4F202010868A5
:100B600040F480200860086840F4803008600CE0A1
:100B700041F20001C4F20201086820F480300860EC
:100B8000086820F480200860FFE7FFE7FFE7FFE741
:100B900004984068D0B1FFE7FFF72EFD0390FFE710
:100BA00041F20000C4F202000068800300280CD467
:100BB000FFE7FFF721FD0399401A652804D3FFE7FB
:100BC00003208DF8170098E2EAE719E0FFF714FD1B
:100BD0000390FFE741F20000C4F2020000688003C6
:100BE00000280CD5FFE7FFF707FD0399401A652899
:100BF00004D3FFE703208DF817007EE2EAE7FFE762
:100C0000FFE7FFE7049800788007002840F18D8017
:100C1000FFE741F20400C4F20200006810F00C0F7C
:100C200013D0FFE741F20400C4F20200006800F0B4
:100C30000C00082829D1FFE741F20400C4F20200A9
:100C40000068C003002820D4FFE741F20000C4F28E
:100C5000020000688007002809D5FFE704980069B2
:100C6000012804D0FFE701208DF8170045E241F28A
:100C70000001C4F20201086820F0F800049A5269E9
:100C800040EAC2000860FFE74EE00498006958B3EC
:100C9000FFE70021C4F2422101200860FFF7ACFC0D
:100CA0000390FFE741F20000C4F2020000688007F1
:100CB00000280CD4FFE7FFF79FFC0399401A032894
:100CC00004D3FFE703208DF8170016E2EAE741F2AC
:100CD0000001C4F20201086820F0F800049A526989
:100CE00040EAC20008601EE00021C4F24221002058
:100CF0000860FFF781FC0390FFE741F20000C4F2B7
:100D000002000068800700280CD5FFE7FFF774FC9D
:100D10000399401A032804D3FFE703208DF8170036
:100D2000EBE1EAE7FFE7FFE7FFE704980078000759
:100D3000002848D5FFE70498806918B3FFE740F220
:100D40008041C4F2422101200860FFF755FC039066
:100D5000FFE741F22400C4F2020000688007002887
:100D60000CD4FFE7FFF748FC0399401A032804D38B
:100D7000FFE703208DF81700BFE1EAE7012001F04B
:100D80000DF81FE040F28041C4F2422100200860CB
:100D9000FFF732FC0390FFE741F22400C4F20200A7
:100DA0000068800700280CD5FFE7FFF725FC0399B2
:100DB000401A032804D3FFE703208DF817009CE1B5
:100DC000EAE7FFE7FFE7049800784007002840F1D2
:100DD000D880FFE700208DF8070041F21C00C4F224
:100DE00002000068C000002813D4FFE7FFE741F2CB
:100DF0001C00C4F20200016841F0805101600068EB
:100E000000F0805000900098FFE701208DF8070067
:100E1000FFE747F20000C4F200000068C0050028A8
:100E200022D4FFE747F20001C4F20001086840F451
:100E300080700860FFF7E0FB0390FFE747F20000D7
:100E4000C4F200000068C00500280CD4FFE7FFF7DB
:100E5000D3FB0399401A652804D3FFE703208DF8DC
:100E600017004AE1EAE7FFE7FFE70498C0680128B6
:100E700009D1FFE741F22001C4F20201086840F005
:100E80000100086031E00498C06868B9FFE741F2EA
:100E90002001C4F20201086820F00100086008681F
:100EA00020F0040008601FE00498C06805280DD1F8
:100EB000FFE741F22001C4F20201086840F004009B
:100EC0000860086840F0010008600CE041F2200171
:100ED000C4F20201086820F001000860086820F0F0
:100EE00004000860FFE7FFE7FFE7FFE70498C0683A
:100EF000E0B1FFE7FFF780FB0390FFE741F220003E
:100F0000C4F202000068800700280ED4FFE7FFF754
:100F100073FB0399401A41F28931884204D3FFE7F9
:100F200003208DF81700E8E0E8E71BE0FFF764FB1B
:100F30000390FFE741F22000C4F20200006880073E
:100F400000280ED5FFE7FFF757FB0399401A41F23F
:100F50008931884204D3FFE703208DF81700CCE0E5
:100F6000E8E7FFE79DF80700012809D1FFE741F214
:100F70001C01C4F20201086820F080500860FFE7FD
:100F8000FFE70498C069002800F0B380FFE741F252
:100F90000400C4F20200006800F00C00082800F011
:100FA0008280FFE70498C06902285CD1FFE76021D6
:100FB000C4F2422100200860FFF71EFB0390FFE708
:100FC00041F20000C4F202000068800100280CD544
:100FD000FFE7FFF711FB0399401A032804D3FFE74B
:100FE00003208DF8170088E0EAE70498006AB0F55E
:100FF000803F0CD1FFE741F20401C4F2020108680E
:1010000020F40030049A926810430860FFE741F230
:101010000401C4F20201086820F47410049B1A6AE7
:101020005B6A1A43104308606021C4F24221012028
:101030000860FFF7E1FA0390FFE741F20000C4F215
:1010400002000068800100280CD4FFE7FFF7D4FA03
:101050000399401A032804D3FFE703208DF81700F3
:101060004BE0EAE71EE06021C4F242210020086064
:10107000FFF7C2FA0390FFE741F20000C4F202005A
:101080000068800100280CD5FFE7FFF7B5FA039947
:10109000401A032804D3FFE703208DF817002CE043
:1010A000EAE7FFE724E00498C069012804D1FFE7DC
:1010B00001208DF8170020E041F20400C4F2020084
:1010C00000680290029800F480300499096A88420E
:1010D00008D1FFE7029800F470100499496A884229
:1010E00004D0FFE701208DF8170006E0FFE7FFE7D7
:1010F000FFE700208DF81700FFE79DF8170006B006
:1011000080BD000080B582B00190019800F066FEBD
:1011100002B080BD81B0009001B0704781B00090F6
:1011200001B0704785B003900291FFE7039890F8F3
:101130003C00012804D1FFE702208DF813005BE09A
:101140000399012081F83C00FFE7FFE703990220A3
:1011500081F83D000398006840680190039800689A
:1011600080680090019820F070000190029801685A
:101170000198084301900198039909684860039811
:10118000006842F60041C4F20101884218D0FFE72E
:1011900003980068B0F1804F12D0FFE70398006811
:1011A00040F20041C4F20001884209D0FFE70398F1
:1011B000006840F60001C4F2000188420ED1FFE74A
:1011C000009820F080000090029841680098084341
:1011D00000900098039909688860FFE7039901204F
:1011E00081F83D00FFE70399002081F83C00FFE70C
:1011F00000208DF81300FFE79DF8130005B070473D
:1012000080B582B00090009820B9FFE701208DF8EA
:1012100007003FE0009890F83D0040B9FFE70099D3
:10122000002081F83C00009800F038F8FFE70099B2
:10123000022081F83D00009951F8040B00F08AFE6D
:101240000099012081F84600FFE70099012081F80C
:101250003E00009981F83F00009981F84000009914
:1012600081F84100FFE7FFE70099012081F8420083
:10127000009981F84300009981F84400009981F8B1
:101280004500FFE70099012081F83D0000208DF81E
:101290000700FFE79DF8070002B080BD80B584B06D
:1012A00003900398006840F20041C4F200018842B4
:1012B00019D1FFE7FFE741F21C00C4F20200016808
:1012C00041F002010160006800F002000290029803
:1012D000FFE71D20019000221146FFF729FA01982F
:1012E000FFF71CFAFFE704B080BD000083B0019057
:1012F000019890F83D00012804D0FFE701208DF807
:101300000B0047E00199022081F83D000198016837
:10131000C86840F00100C8600198006842F60041CA
:10132000C4F20101884218D0FFE701980068B0F1CB
:10133000804F12D0FFE70198006840F20041C4F2EC
:101340000001884209D0FFE70198006840F60001DB
:10135000C4F20001884212D1FFE70198006880685A
:1013600000F0070000900098062807D0FFE70198DA
:101370000168086840F001000860FFE706E0019896
:101380000168086840F001000860FFE700208DF860
:101390000B00FFE79DF80B0003B0704780B586B0E7
:1013A0000490039100208DF80B00FFE7049890F85B
:1013B0003C00012804D1FFE702208DF81700ABE0C4
:1013C0000499012081F83C00FFE7FFE7049902201F
:1013D00081F83D000498006880680190019820F031
:1013E00077000190019820F47F40019001980499C2
:1013F00009688860039800680090002872D0FFE7B1
:10140000009810286ED0FFE7009820286AD0FFE7E8
:101410000098302866D0FFE70098402855D0FFE7B5
:101420000098502837D0FFE70098602840D0FFE7A9
:10143000009870280BD0FFE70098B0F5805F05D0CA
:10144000FFE70098B0F5005F16D052E055E0049831
:101450000068039B5A689968DB6800F01BFE0498DB
:10146000006880680190019840F077000190019831
:1014700004990968886040E004980068039B5A68F2
:101480009968DB6800F006FE04980168886840F4FB
:101490008040886031E004980068039A5168D268FF
:1014A00000F028FE04980068502100F00DFE24E0B2
:1014B00004980068039A5168D26800F043FE0498CB
:1014C0000068602100F000FE17E004980068039AAD
:1014D0005168D26800F00EFE04980068402100F0C8
:1014E000F3FD0AE0049800680399096800F0ECFD38
:1014F00003E001208DF80B00FFE70499012081F83B
:101500003D00FFE70499002081F83C00FFE79DF8CB
:101510000B008DF81700FFE79DF8170006B080BD9F
:1015200080B586B004900391049820B9FFE70120AC
:101530008DF8170084E0049890F83D0040B9FFE76B
:101540000499002081F83C00049800F07DF8FFE742
:101550000499022081F83D0004980168886844F2EB
:10156000070290438860049951F8040B00F0F2FCE4
:10157000049800688068029004980068806901906F
:1015800004980068006A0090039801680298084374
:101590000290019840F203318843019003998868D2
:1015A000896940EA0121019808430190019840F6B9
:1015B0000C418843019001984FF2F001884301905B
:1015C0000399C868C96940EA01210198084301905C
:1015D00003990869096A000140EA0131019808434A
:1015E0000190009820F02200009003994868496912
:1015F00040EA011100980843009002980499096894
:1016000088600198049909688861009804990968BC
:1016100008620499012081F84600049981F83E008F
:10162000049981F83F00049981F84200049981F8F7
:101630004300049981F83D0000208DF81700FFE772
:101640009DF8170006B080BD80B58AB009900020D3
:1016500008900790069005900998006842F60041AE
:10166000C4F2010188422CD1FFE7FFE741F21800E4
:10167000C4F20200016841F400610160006800F4F6
:10168000006004900498FFE7FFE741F21800C4F2FD
:101690000200016841F004010160006800F00400EC
:1016A00003900398FFE74FF44070059000200690E8
:1016B000079040F60000C4F2010005A9FEF7F4FD12
:1016C00031E009980068B0F1804F2BD1FFE7FFE7C8
:1016D00041F21C00C4F20200016841F00101016006
:1016E000006800F0010002900298FFE7FFE741F276
:1016F0001800C4F20200016841F0040101600068B2
:1017000000F0040001900198FFE7032005900020FD
:101710000690079040F60000C4F2010005A9FEF70C
:10172000C3FDFFE7FFE70AB080BD000080B586B0CB
:1017300004900391049890F83E008DF80B000498F3
:1017400090F83F008DF80A00049890F842008DF858
:101750000900049890F843008DF808000398B8B980
:10176000FFE79DF80B00012805D1FFE79DF8090070
:10177000012804D0FFE701208DF8170079E00499D3
:10178000022081F83E00049981F84200FFE742E020
:101790000398042817D1FFE79DF80A00012805D116
:1017A000FFE79DF80800012804D0FFE701208DF82D
:1017B00017005EE00499022081F83F00049981F847
:1017C0004300FFE726E09DF80B0001280FD1FFE75B
:1017D0009DF80A0001280AD1FFE79DF809000128B9
:1017E00005D1FFE79DF80800012804D0FFE701209C
:1017F0008DF817003DE00499022081F83E0004991D
:1018000081F83F00049981F84200049981F843006F
:10181000FFE7FFE7FFE70398019020B1FFE701989A
:10182000042807D00DE0049800680021012200F090
:1018300015FC14E0049800680421012200F00EFC5D
:101840000DE00498006800210122009200F006FCDF
:10185000009A04980068042100F000FCFFE7049857
:101860000168086840F00100086000208DF817004A
:10187000FFE79DF8170006B080BD000081B0009022
:1018800001B0704780B584B0039003980068C068C9
:10189000029003980068006901909DF80400800799
:1018A000002824D5FFE79DF80800800700281DD5F3
:1018B000FFE7039801686FF00200086103990120B7
:1018C0000877039800688069800720B1FFE70398D4
:1018D000FFF7D4FF06E0039800F0E2F8039800F069
:1018E000E3F8FFE7039900200877FFE7FFE79DF89B
:1018F00004004007002825D5FFE79DF808004007B1
:1019000000281ED5FFE7039801686FF00400086106
:1019100003990220087703980068806910F4407FDB
:1019200004D0FFE70398FFF7A9FF06E0039800F053
:10193000B7F8039800F0B8F8FFE70399002008779C
:10194000FFE7FFE79DF804000007002824D5FFE724
:101950009DF80800000700281DD5FFE703980168DF
:101960006FF0080008610399042008770398006865
:10197000C069800720B1FFE70398FFF77FFF06E00B
:10198000039800F08DF8039800F08EF8FFE70399B4
:1019900000200877FFE7FFE79DF80400C006002855
:1019A00025D5FFE79DF80800C00600281ED5FFE7F3
:1019B000039801686FF01000086103990820087708
:1019C00003980068C06910F4407F04D0FFE70398D3
:1019D000FFF754FF06E0039800F062F8039800F068
:1019E00063F8FFE7039900200877FFE7FFE79DF81A
:1019F0000400C00778B1FFE79DF80800C00748B1B0
:101A0000FFE7039801686FF001000861039800F098
:101A10004FF8FFE7FFE79DF804000006002810D507
:101A2000FFE79DF808000006002809D5FFE70398A6
:101A300001686FF0800008610398FFF76BFBFFE718
:101A4000FFE79DF804004006002810D5FFE79DF849
:101A500008004006002809D5FFE7039801686FF0E9
:101A600040000861039800F027F8FFE7FFE79DF8C2
:101A700004008006002810D5FFE79DF808008006C6
:101A8000002809D5FFE7039801686FF0200008617E
:101A90000398FFF743FBFFE7FFE704B080BD0000BA
:101AA00081B0009001B0704781B0009001B07047E4
:101AB00081B0009001B0704781B0009001B07047D4
:101AC000FFE7FEE780B590B000200F900E900D90DC
:101AD0000C90FFE741F21800C4F20200016841F0E7
:101AE00010010160006800F010000B900B98FFE7F8
:101AF000FFE741F21800C4F20200016841F004015E
:101B00000160006800F004000A900A98FFE7FFE710
:101B100041F21800C4F20200016841F008010160BE
:101B2000006800F0080009900998FFE741F2000002
:101B3000C4F2010002904FF400510191002204927E
:101B4000FEF742FD049A40F60040C4F20100069000
:101B500078210891FEF738FD019A029804990C92B9
:101B6000012203920D920E91022105910F910CA971
:101B70000791FEF799FBDDF80CC0049B059A0698C7
:101B80000799DDF820E0CDF830E0CDF834C00E93B1
:101B90000F92FEF789FB10B080BD000080B58EB0BB
:101BA00005A800902421FEF70FFB00990023019364
:101BB0000493039340F27800C2F20000029042F6D0
:101BC0000042C4F2010202604360202282601422BB
:101BD000C2600361436183614FF0010CCDF814C012
:101BE0000693CDF81CC00893062209920A93CDF8FB
:101BF0002CC00C930D92FFF793FC18B1FFE7FEF792
:101C00004BFBFFE700200390049040F27800C2F203
:101C1000000003A9FFF786FA18B1FFE7FEF73CFBC7
:101C2000FFE70EB080BD000080B58EB005A8019022
:101C30002421FEF7C9FA019900220292049203922C
:101C400040F2C000C2F200004FF0804303604260E7
:101C5000202383601423C360026182610123059302
:101C600006920793089209920A920B930C920D9296
:101C7000FFF756FC18B1FFE7FEF70EFBFFE7002069
:101C80000390049040F2C000C2F2000003A9FFF7E5
:101C900049FA18B1FFE7FEF7FFFAFFE70EB080BD83
:101CA00080B588B0002101910791069105910491BA
:101CB0000391029140F20810C2F2000040F200428B
:101CC000C4F2000202604FF6FF12426081600922F6
:101CD000C26001618161FFF793FA18B1FFE7FEF777
:101CE000DBFAFFE74FF48050049040F20810C2F294
:101CF000000004A9FFF752FB18B1FFE7FEF7CCFA8A
:101D0000FFE700200290039040F20810C2F20000AA
:101D100002A9FFF707FA18B1FFE7FEF7BDFAFFE7E0
:101D200008B080BDFFE7FEE7FFE7FEE788B0079059
:101D300006910592079800F0070004900498C0F1FE
:101D40000700052803D3FFE70420019004E004986E
:101D5000C0F107000190FFE7019803900498043058
:101D6000062803D8FFE70020009003E0049803381A
:101D70000090FFE70098029006980399012202FA6A
:101D800001F101390840029B984005999A40013AB7
:101D90001140084308B070477047000082B00190BE
:101DA000019840F20001C2F200010968C90844F636
:101DB000D352C1F26202A1FB02218909484300907B
:101DC000FFE700BFFFE70098411E00910028F8D10F
:101DD000FFE702B0704700007047000080B582B096
:101DE000009000980138B0F1807F03D3FFE7012015
:101DF000019019E0009801384EF21401CEF2000172
:101E000008604FF0FF300F2100F0E8F94EF21801A2
:101E1000CEF20001002008604EF21002CEF2000265
:101E2000072111600190FFE7019802B080BD00001A
:101E300080B5FEF7E7FB80BD80B590B006A80090A6
:101E40002821FEF7C1F90098002105910491039122
:101E5000029101910222069201230A9310230B930F
:101E60000D920E914FF460110F91FEF70DFE18B117
:101E7000FFE7FEF711FAFFE70F2001900221029120
:101E8000002003904FF480620492059001A8FEF7B1
:101E900071FC18B1FFE7FEF7FFF9FFE710B080BD56
:101EA0007047000080B540F25210C2F20000018875
:101EB0000131018040F25811C2F200010A8840F25B
:101EC0005013C2F200031B881A4440F25A13C2F2A4
:101ED00000031A8000880988884209DCFFE740F681
:101EE0000C41C4F20101086840F07C0008602AE05F
:101EF00040F25210C2F20000008840F25811C2F2C3
:101F000000010988884216DDFFE740F25210C2F254
:101F10000000008840F25A11C2F20001098888428C
:101F200009DCFFE740F60C41C4F20101086820F02B
:101F30007C00086006E040F25211C2F2000100206D
:101F40000880FFE7FFE740F20810C2F20000FFF749
:101F500099FC80BD83B002900191029800680090C6
:101F6000029842F60041C4F20101884215D0FFE711
:101F70000298B0F1804F10D0FFE7029840F2004184
:101F8000C4F20001884208D0FFE7029840F6000141
:101F9000C4F2000188420AD1FFE7009820F07000E7
:101FA000009001984168009808430090FFE702986C
:101FB00042F60041C4F20101884215D0FFE70298C1
:101FC000B0F1804F10D0FFE7029840F20041C4F218
:101FD0000001884208D0FFE7029840F60001C4F2F1
:101FE000000188420AD1FFE7009820F44070009079
:101FF0000198C168009808430090FFE7009820F01E
:10200000800001994969084300900098029908608E
:10201000019880680299C8620198006802998862F4
:10202000029842F60041C4F20101884205D1FFE75F
:102030000198006902990863FFE70299012048614D
:1020400002980069C00730B1FFE70299086920F0E3
:1020500001000861FFE703B07047000084B00390FF
:1020600002910192029800F01F0101208840009027
:10207000009A0399086A904308620198029901F056
:102080001F0100FA01F20399086A1043086204B0C4
:102090007047000085B00490039102920193049868
:1020A00080680090009820F47F4000900398029987
:1020B000019A41EA022101430098084300900098E8
:1020C0000499886005B0704783B00290019102982E
:1020D00080680090009820F07000009001980099AE
:1020E000084340F00700009000980299886003B010
:1020F0007047000085B00490039102920498006A32
:1021000000900499086A20F0010008620498806930
:102110000190019820F0F00001900299019840EAA6
:1021200001100190009820F00A0000900399009897
:102130000843009001980499886100980499086206
:1021400005B0704785B00490039102920498006A2C
:1021500000900499086A20F01000086204988069D1
:102160000190019820F4704001900299019840EA92
:1021700001300190009820F0A00000900399009891
:1021800040EA011000900198049988610098049930
:10219000086205B070470000FFE7FEE781B08DF8E8
:1021A00003009DF9030000280ED4FFE79DF90310FA
:1021B00001F01F02012090404A094EF20011CEF2B8
:1021C000000141F82200FFE701B070474EF60C50C5
:1021D000CEF200000068C0F30220704782B08DF894
:1021E000070000919DF9070000280AD4FFE7009836
:1021F00000019DF907104EF20042CEF20002885411
:102200000BE0009800019DF8071001F00F014EF659
:102210001452CEF200028854FFE702B0704700006B
:1022200083B00290029800F0070000904EF60C5127
:10223000CEF200010868019001984FF6FF021040AD
:1022400001900198009A40EA02200022C0F2FA525E
:10225000104301900198086003B0704780B582B0C8
:1022600000200190FEF7DCF9FFF7E6FDFFF72AFCFE
:10227000FFF794FCFFF714FDFFF7D6FC40F20810BF
:10228000C2F20000FFF732F840F27800C2F200001C
:102290003C210091FFF74AFA009940F2C000C2F2D7
:1022A0000000FFF743FA42F62440C4F2010001683F
:1022B00040F27402C2F200021170006840F2700134
:1022C000C2F2000108702420C4F20000016840F24C
:1022D0007502C2F200021170006840F27101C2F290
:1022E00000010870FFE742F62441C4F201010868CA
:1022F00040F27202C2F2000210702420C4F2000008
:10230000026840F27303C2F200031A70096840F2D7
:102310007002C2F200021170006840F27101C2F254
:102320000001087040F25810C2F200000088002836
:102330002CD4FFE740F27000C2F20000007840F2B7
:102340007401C2F200010978884208DDFFE740F21B
:102350005811C2F2000108880A30088015E040F2E6
:102360007000C2F20000007840F27401C2F2000175
:102370000978884208DAFFE740F25811C2F20001FA
:1023800008880A380880FFE7FFE706E040F25811A6
:10239000C2F2000100200880FFE742F62440C4F2A8
:1023A0000100006840F27401C2F20001087040F2BE
:1023B0005010C2F20000008800282CD4FFE740F241
:1023C0007100C2F20000007840F27501C2F2000113
:1023D0000978884208DDFFE740F25011C2F200019F
:1023E00008880A30088015E040F27100C2F200004F
:1023F000007840F27501C2F200010978884208DADB
:10240000FFE740F25011C2F2000108880A38088044
:10241000FFE7FFE706E040F25011C2F200010020A2
:102420000880FFE72420C4F20000006840F2750134
:10243000C2F20001087056E7000000000000000032
:102440000102030406070809020304050607080938
:102450000A0B0C0D0E0F1010010200008024000862
:10246000000000201000000028010008902400084F
:102470001000002050070000440100080000000088
:1024800000127A00010000001000000000000000AF
:04000005080000ED02
:00000001FF
